:100000000C942A000C9434000C9434000C943400AA
:100010000C9434000C9434000C9434000C94340090
:100020000C9434000C9434000C9434000C94340080
:100030000C9434000C9434000C9434000C94340070
:100040000C9434000C9434000C9434000C94340060
:100050000C94340011241FBECFE5D8E0DEBFCDBF25
:100060000E9436000C9457000C940000D09AD59A48
:1000700051E028EC30E040E28BB385278BBB80E178
:1000800097E2F9013197F1F70197D9F78BB38527FB
:100090008BBB8BB384278BBB80E197E2F90131974F
:1000A000F1F70197D9F78BB384278BBBE5CFF89491
:0200B000FFCF80
:00000001FF
