:100000000C942A000C943C000C943C000C943C0092
:100010000C943C000C943C000C943C000C943C0070
:100020000C943C000C943C000C943C000C943C0060
:100030000C943C000C943C000C943C000C943C0050
:100040000C943C000C943C000C943C000C943C0040
:100050000C943C0011241FBECFE5D8E0DEBFCDBF1D
:1000600010E0A0E6B0E001C01D92A336B107E1F7B1
:100070000E943E000C94A8000C94000081E00E94B5
:100080004E0020E048EC50E02BBB80E197E2FA0103
:100090003197F1F70197D9F72F5FF6CF8093600082
:1000A000823079F0833018F4813009F505C083304F
:1000B00069F08430E1F413C08FEF8ABB8BE390E0EA
:1000C00009C08FEF87BB88E390E004C08FEF84BB4B
:1000D00085E390E0909362008093610008958FEF34
:1000E00081BB82E390E09093620080936100089569
:1000F000823069F0833018F4813089F405C0833090
:1001000049F0843061F409C01ABA1BBA089517BACD
:1001100018BA089514BA15BA089511BA12BA089502
:10012000823069F0833018F4813089F405C083305F
:1001300049F0843061F409C08FEF8ABB08958FEFD6
:1001400087BB08958FEF84BB08958FEF81BB08951F
:04015000F894FFCF51
:00000001FF
